:020000040800F2
:10000000000002201D0A00081B0A0008190A000847
:10001000190A0008190A0008190A0008000000005F
:100020000000000000000000000000001B0A0008A3
:100030001B0A0008000000001B0A00085502000807
:100040001B0A00081B0A00081B0A00081B0A0008FC
:100050001B0A00081B0A00081B0A00081B0A0008EC
:100060001B0A00081B0A00081B0A00081B0A0008DC
:100070001B0A00081B0A00081B0A00081B0A0008CC
:100080001B0A00081B0A00081B0A00081B0A0008BC
:100090001B0A00081B0A00081B0A00081B0A0008AC
:1000A0001B0A00081B0A00081B0A00081B0A00089C
:1000B0001B0A00081B0A00081B0A00081B0A00088C
:1000C0001B0A00081B0A00081B0A00081B0A00087C
:1000D0001B0A00081B0A00081B0A00081B0A00086C
:1000E0001B0A00081B0A00081B0A00081B0A00085C
:1000F0001B0A00081B0A00081B0A00081B0A00084C
:100100001B0A00081B0A00081B0A00081B0A00083B
:100110001B0A00081B0A00081B0A00081B0A00082B
:100120001B0A00081B0A00081B0A00081B0A00081B
:100130001B0A00081B0A00081B0A00081B0A00080B
:100140001B0A00081B0A00081B0A0008CD0900084A
:100150001B0A00081B0A00081B0A00081B0A0008EB
:100160001B0A00081B0A00081B0A00081B0A0008DB
:100170001B0A00081B0A00081B0A00081B0A0008CB
:100180001B0A000808B5084B586000F032FC002834
:1001900004DB064B19684A1C1A6008BD02494A680C
:1001A000002AF2D108BD00BF9C07002028000020D3
:1001B000054B596810B54A1C9C68D2B2A24202D0C5
:1001C00059185A60087310BD28000020064B9A6821
:1001D00059688A4205D098180132D1B2007B9960E3
:1001E00070474FF0FF3070472800002038B5144C9E
:1001F0002368013322D0134D13482A6882421DD947
:1002000012498B6803F1006000F58041914215D9D5
:1002100000F0A2FD00F022FE00F030FE012000F010
:1002200089FA022000F076FA00F0DAFB084A14603E
:1002300024682D6884F308882847FEE738BD00BF8E
:100240000040000804400008FF3F000800000020B4
:1002500008ED00E010B500230C4A52F8231021B13C
:1002600052F82300411E42F823100133042BF3D12E
:10027000074A92F80C0138B9044CA16821B9022050
:1002800000F068FA3223A36010BD00BF9C07002075
:1002900028000020024BD860DA68002AFCD17047A1
:1002A0009C0700202DE9F047B54C88B00746012097
:1002B000A56800F0C1FDE3684FF47A70584300F080
:1002C000B3FD00F0C3FD00F0D1FDAE4807B10760FB
:1002D000AD49002281F80C2182604FF0FF360120E9
:1002E00000F028FA27B1A74B1868002800F0AA816F
:1002F0000020FFF747FF0190019A002AF2DB01205E
:1003000000F008FA019921391029E8D801A252F821
:1003100021F000BF5903000869030008CB0300085F
:10032000DF020008DF020008DF02000833040008D3
:10033000DF020008D50400085D050008A5050008D7
:10034000DF020008DF020008DF020008DF02000809
:10035000CD0500080B0600084FF47A70FFF712FF76
:10036000202840F05C8150E14FF47A70FFF70AFFDB
:10037000041EC0F254814FF47A70FFF703FF202867
:1003800040F04D81601E042800F24981DFE800F052
:10039000030507090E007D4804E0794802E07C4827
:1003A00000E07C48042100F026FB2EE11C242046BE
:1003B00000F066F908AB042143F8180D0434184620
:1003C00000F019FB2C2CF2D11FE14FF47A70FFF7EB
:1003D000D9FE202840F023816B4D0220012485F8AE
:1003E0000C4100F097F900F0ABFC0025284600F026
:1003F00033F9044620B1284600F04CF90135F5E701
:10040000614A022082F80C0100F094F95C4B986874
:10041000844207D2204600F033F9013040F00881D1
:100420000434F3E7584F5749002587F80C518D6085
:10043000EBE04FF47A70FFF7A5FE041EC0F2EF80E8
:1004400014F0030840F0EB804D498A68601990422F
:1004500000F2E580B4F5807F00F2E180A0454FF422
:100460007A700DD0FFF78EFE0190019B002BC0F239
:10047000D6800198484908F8010008F10108EDE725
:10048000FFF780FE202840F0CA8035B93E4B4FF080
:10049000FF30D3F81061C3F810014FEAA40A4FF0FF
:1004A00000082C46D04513DA3B49C5EB010920462C
:1004B00059F8041000F0DCF8204600F0E1F859F893
:1004C0000420904240F0B480043408F10108E9E7C8
:1004D00025469AE04FF47A70FFF754FE202840F04A
:1004E0009E8000242746264B9868844232D21CB94D
:1004F000721C01D0029603E0204600F0C1F8029081
:10050000214AD2F8142292B1002313E013F0010F14
:100510004FEA530016BF214B034643400139F5D142
:100520001F4941F822300132B2F5807FECD01346EA
:100530000821EBE702A8195C13487940CAB200EB26
:1005400082010133D1F81022042B82EA1727F1D15E
:100550000434C8E708A840F8147D23E70024642089
:10056000FFF710FE00285ADB04A960540134042C64
:10057000F5D1049800F0B8F808AF47F80C0D22E068
:10058000000000209C07002028000020781C0008A4
:100590000400002008000020380100202083B8ED6E
:1005A0003802002000246420FFF7ECFD002836DB31
:1005B00006AAA0540134042CF5D1069800F0A4F842
:1005C00008AF47F8040D38462146ECE64FF47A7040
:1005D000FFF7D8FD202822D1731C0BD11B4B1888A4
:1005E0000221ADF80000684600F005FA6420FFF72C
:1005F00051FE27E00020314600F03AF8002000F0DC
:100600003FF8B042EAD02C4612E0104F39886846D5
:10061000ADF80010022100F0EEF900275FE60C4A69
:1006200010880221ADF80000684600F0E4F956E6B3
:10063000084D2A8868460221ADF80020254600F0C2
:10064000DAF94CE608B0BDE8F08700BF7C1C000872
:100650007E1C0008801C00080A2804D8034B03EB0A
:10066000C000406870470020704700BF841C00082D
:1006700000F1006000F580404FF4007200F07CBB98
:10068000830705D100F1006000F5804108687047DC
:10069000002070470A28F8B5044621D800273E46B6
:1006A000A742104A05D002EBC70101374D68761901
:1006B000F6E702EBC40000254768BD4206D2A81940
:1006C000FFF7DEFF013002D10435F6E7F8BD054B38
:1006D00053F834004FF40071BDE8F84000F064BBFB
:1006E000F8BD00BF841C000810F0030308D1B0F56A
:1006F000007F07D800F10050A0F508410868704756
:100700000020704718467047014BC058704700BF23
:10071000107AFF1F012805D0022808D104484FF4A1
:10072000804102E002484FF4005100F0E9BA7047FE
:10073000000C0240012805D0022808D104484FF4DB
:10074000804102E002484FF4005100F0D7BA7047F0
:10075000000C0240012805D0022808D104484FF4BB
:10076000804102E002484FF4005100F0CFBA7047D8
:10077000000C0240504B1A6873B55049002442F4F3
:1007800070000F266FF03F0518604D728E720C726C
:10079000CC724B484B4E012100F0C6F902224FF4B7
:1007A00000734948214600F03FFA0821444800F010
:1007B000BBF90121454822464FF4C04300F034FA0A
:1007C00022464FF4C0434148214600F050FA3F48CA
:1007D0004FF4C04100F094FA3D484FF0805100F0D2
:1007E000A3F93C4B1A6842F48070186031683A4AA9
:1007F00041F4004535601168306800F4004535600B
:10080000186820F4807535481D60814212D119683E
:1008100041F480701860356845F40041316014601F
:10082000326802F4004030601E6826F480751D6056
:10083000254602E041F28834012523484FF4007137
:1008400000F061FA064618B915B1FFF7CFFC34463F
:10085000234800F0A5F9002000F0BAF82046FFF781
:1008600021FD0025164800950121019500F05CF955
:100870001548294601224FF4806300F0D5F9009510
:10088000009BC72B0CD810484FF4806100F03BFA56
:1008900010B9019D6B1C0193009A501C0090EFE76A
:1008A000019A009864215A264A4370438242D5D85F
:1008B000FFF79CFC0024D1E788ED00E00000002059
:1008C000303802407038024000000240000C024004
:1008D00040380240007000405028004007B007B088
:1008E0003C1D00084078202805D0B0F12203594271
:1008F00051EB030070471088062894BF00200120A8
:100900007047000008B50120022140220A4B00F088
:10091000FFFA822002214022002300F0F9FA83200E
:1009200003211022002300F0F3FA044A21207F2142
:10093000BDE8084000F0D6BD41090008E508000800
:1009400030B591B001206946402200F00BFB002435
:100950000546AC4205D21DF80400FFF729FC01341E
:10096000F7E711B030BD000010B50121104C11485F
:1009700000F0DAF88021104800F0D6F82046022175
:1009800000224FF4C05300F04FF920460A214FF4E3
:10099000C05200F088F90949094B0A4801F11202D6
:1009A00000F084FA0848BDE8104000F0A9BC00BF80
:1009B000000002403038024034380240541D000824
:1009C000100000205C1E00080509000800F08CBA29
:1009D00008B5FFF7C9FF4320BDE8084000F00ABA98
:1009E00008B5012000F08AFA4320BDE8084000F075
:1009F0000FBAFFF7EBBB38B505460C465CB1402C8F
:100A000034BF224640222946822092B200F0A0FA4A
:100A1000241A2D18F2E738BDFEE770470B4B83F31D
:100A2000088800230A490B485A18824204D20A480F
:100A30001A585A500433F5E7084B9A4203D2002162
:100A400042F8041BF8E7FFF795BE00BF0000022044
:100A50000000002028000020881E0008AC070020AD
:100A600004281CD8DFE800F003080D1217000C4B17
:100A700018688301FBD5704709490A689003FBD5C4
:100A80007047074B18688107FBD5704705490A680E
:100A90009207FBD57047044B18688307FBD5704756
:100AA00000380240703802407438024001280AD0F1
:100AB00002D3022812D10DE009490A6802F00303AB
:100AC000022BF9D170470648016801F00302012AA0
:100AD000F9D17047024B18688307FBD1704700BFFC
:100AE00008380240042817D8DFE800F003080D0F8B
:100AF00011000A4B1A6842F080700CE0074B19682D
:100B000041F4803007E0054B02E0054B00E0054B67
:100B10001A6842F001001860704700BF00380240B8
:100B2000703802407438024003681943016070470E
:100B3000034B1A6822F0030108431860704700BF96
:100B400008380240034B1A6822F4604141EA403001
:100B50001860704708380240034B1A6822F4E051CD
:100B600041EA80201860704708380240034B1A6839
:100B700022F0F00141EA0010186070470838024086
:100B800040F4800040EA8111520841EA0363501E9C
:100B900043EA0041014B1960704700BF043802402E
:100BA00010B504460220FFF79DFF0220FFF758FF13
:100BB0000020FFF7BDFF0120FFF794FF0120FFF7A2
:100BC0004FFFE07B00B1012000F060F9207BFFF7D0
:100BD000CDFF607BFFF7C0FFA07BFFF7B3FF20785E
:100BE000227963796188FFF7CBFF0C4B1A6842F0DA
:100BF0008070186019688A01FCD5A06800F096F82A
:100C00000220FFF795FF0020FFF750FF2369044AF9
:100C1000606904491360086010BD00BF00380240DD
:100C200020000020240000202DE9F0410668C5685E
:100C3000002443FA04F717F0010F11D067004FF0BA
:100C4000030C0CFA07F86FEA080C0CEA060601FA26
:100C500007F80CEA050502FA07F746EA08063D43DD
:100C60000134102CE5D10660C560BDE8F081012992
:100C700041680CBF1943994370B5416084680021F5
:100C800043FA01F515F0010F08D04D00032606FACE
:100C900005F624EA060402FA05F52C430131102971
:100CA000EED1846070BDF0B5036A456A002442FA53
:100CB00004F6F60708D5A6000F2707FA06F723EA79
:100CC000070301FA06F633430134082CEFD1002460
:100CD00004F1080642FA06F616F0010F08D0A60045
:100CE0000F2707FA06F701FA06F623EA070335434A
:100CF0000134082CECD103624562F0BD816170477C
:100D00000904816170470069084070474369594090
:100D100041617047044B1A6822F4407119601A68E7
:100D200010431860704700BF103C0240034B1A6824
:100D300022F0070108431860704700BF003C0240E2
:100D4000034A044B02F188301A601860704700BFF4
:100D500023016745043C0240024B1A6842F0004000
:100D600018607047103C0240024B1868C303FBD464
:100D7000704700BF0C3C024070B514460E46054655
:100D8000FFF7F2FF2046074CFFF7C4FF236843F04C
:100D9000010020602E60FFF7E7FF216821F00102CB
:100DA000226070BD103C024038B50C460546FFF786
:100DB000DBFF20460E4CFFF7ADFF236823F07800E1
:100DC000206021680D432560226842F00203236001
:100DD000206840F480312160FFF7C6FF226822F0CE
:100DE00002032360206820F07801216038BD00BF35
:100DF000103C02404309990001F1604202F5614351
:100E000000F01F00012101FA00F21A607047000093
:100E10004209012300F01F0003FA00F1014840F8E5
:100E20002210704780E100E0024B20F07F40186004
:100E3000704700BF14E000E0012804D8024B1A6894
:100E400042EA80001860704710E000E0024B1A6828
:100E500042F002001860704710E000E0024B1A6890
:100E600022F002001860704710E000E0024B1A68A0
:100E700042F001001860704710E000E0024B1A6871
:100E800022F001001860704710E000E020B9064B26
:100E9000196841F4804005E0012804D1024B1A682A
:100EA00002F48040186070470070004010B5094C93
:100EB00084E80E00084BC4F8AC008021E360218276
:100EC00000688047054A064B06492265E364A16431
:100ED000002010BDB80600203806002015150008B7
:100EE00075150008F915000808B5034BD3F8AC00D8
:100EF000416A884708BD00BFB806002008B5034B0B
:100F0000D3F8AC108A6A02B1904708BDB806002039
:100F100010B5034CD4F8AC40A468A04710BD00BF86
:100F2000B806002038B50024084D2046214640224E
:100F30002346AC74EC74FFF7EBFFD5F8AC302046D9
:100F400059688847A86900B1804738BDB8060020B5
:100F500008B5034BD3F8AC30DB69984708BD00BF38
:100F6000B806002008B5034BD3F8AC301B6A98478D
:100F700008BD00BFB806002008B5034BD3F8AC206D
:100F80001369984708BD00BFB806002008B5034B99
:100F9000D3F8AC108A69904708BD00BFB80600209E
:100FA00038B50B4C4388E27C9A4205460ED0D4F803
:100FB000AC00E374C1688847D4F8A82032B100239C
:100FC000A3622363A363236468889047012038BD2C
:100FD000B80600201388012B01D901201080034A94
:100FE0000968D37C01200B70704700BFB806002051
:100FF000438813B9138001207047002070470120F7
:101000000B68108000221A7070471388022B01D9D8
:10101000022010800A6800231370096801204B70B9
:1010200070471388022B01D9022010800A68002320
:101030001370096801204B70704738B51388022B74
:101040000C4601D90221118080882568C0B2FFF7C3
:101050009DFF021C18BF01222A70236800215970CD
:10106000012038BD08B580880121C0B2FFF784FF98
:10107000012008BD08B580880021C0B2FFF77CFFC1
:10108000012008BD2DE9F04FB0F802804FEA182387
:10109000022B89B006460D46174610D0032B00F0F0
:1010A000D580012B40F00A81874A3B88116829606E
:1010B00010680278934238BF1A463A8000E1824CA9
:1010C0001588E6680D200E605FFA88F818FB00F8B6
:1010D000D4F80490039619F8084009EB0803A542D8
:1010E00038BF2C46194630462246049300F0F2FCE5
:1010F000039919F808802A1B0E1995B20023049849
:101100000593059903798B4240F29B800599049BD6
:101110000C2041430791D3F809205018D0F80490CF
:10112000B9F1000F15D099F800A0554538BFAA466F
:1011300030464946524600F0CDFC99F80010CAEB03
:101140000505544408EB010C5644ADB2A4B21FFA95
:101150008CF80021049B0691D3F8090007994358A5
:1011600042180698984268DA069893684FF0150B73
:101170000BFB00FB03EB0B0913F80BA00193554588
:1011800038BFAA4652463046494600F0A3FCCAEB97
:101190000505D9F811200199ADB29542B8BF2A468C
:1011A000564454441FFA82FA11F80BB0D9F80D10C6
:1011B000CDF804A03046524600F08CFCD9F811104E
:1011C0000198A4B28B44CAEB0505544418FA8BF875
:1011D0003618ADB2A4B21FFA88F84FF0000A99F899
:1011E0000420524525D9072202FB0AF3D9F809E069
:1011F0001EF803B001935D4538BFAB4630460EEB99
:1012000003015A46CDF808E000F064FC0198DDF8CF
:1012100008C01CF80010CBEB05055C4488440AF1BB
:10122000010A5E44ADB2A4B21FFA88F81FFA8AFA26
:10123000D5E7069B581C81B28CE705994A1C93B2EE
:101240005DE7039AA2F802803C8039E01E49CC6831
:10125000896899B300225FFA88F0824204DC51F871
:10126000220070B30132F6E751F8200000F0D4FC00
:10127000431C5A000321227061702C603888237847
:10128000114A984238BF034691683B800023388852
:101290004208501E8342728808DAD0B251F82020EA
:1012A000D05C04EB430201335080F0E712F0FF0FF3
:1012B00006D109210423A170E37001E0002000E0C1
:1012C000012009B0BDE8F08FB806002008B503780A
:1012D0007BB942887F2A0CD807498A74D1F8AC3090
:1012E000064A934203D140885968C0B2884701201A
:1012F00008BD002008BD00BFB80600205C1E000825
:10130000014BC3F8A8007047B806002010B5437819
:10131000092B05D8044C54F823301BB1984710BD55
:10132000002010BD184610BD341E000810B54378CB
:101330000B2B05D8044C54F823301BB1984710BD33
:10134000002010BD184610BD041E000808B54378E3
:10135000012B03D009D3032B05D102E0438833B11D
:1013600001E043882BB1002008BD034B02E0034B92
:1013700000E0034B984708BD3B10000875100008BB
:1013800065100008037813F0600F0CD103F01F0301
:10139000012B06D003D3022B05D1FFF7D7BFFFF7F0
:1013A000B5BFFFF7C3BF00207047000038B50F4D31
:1013B0000F4C2B68E168DA79238A00209A420CD21C
:1013C000FFF7C6FD2B68E168D879238A02222270D4
:1013D0000A18181AE260208238BD1A46FFF7B8FDD5
:1013E0000021032020702182E16038BDB806002072
:1013F0006807002070B5104A104C1068238AB4F8B2
:101400000750C179E268ED1A8D42A8BF0D46AEB211
:101410000020D1183246FFF7A5FDB04206D00020CB
:101420000121FFF7A9FD4FF0FF3070BD238AC018DE
:101430002082A8B270BD00BFB80600206807002057
:1014400070B50024124AA1188D6A45B9114800F1FF
:101450000B0100F10F02BDE87040FFF793BF0E4B88
:1014600091F82D60587891F82C1006EA000291420C
:1014700003D00834202CE5D1E8E7581C03F10C0117
:1014800003F110021433A8470028F2D070BD00BF4A
:10149000B8060020690700206807002010B50F4C2F
:1014A0000F4BE179227AD86841EA0223E060238277
:1014B000FFF7C6FF60B1208A18B1BDE81040FFF702
:1014C00075BF01460246FFF743FD0420207010BDA2
:1014D0000121BDE81040FFF74FBD00BF68070020A5
:1014E000B806002070B50023094C04EBC305AD6AB3
:1014F0002DB10133042BF7D14FF0FF3070BD053310
:1015000004EBC30644F8332030717171284670BD76
:10151000B806002038B5154C0025611C0822284665
:101520006561FFF71FFD082805D000200121BDE8F7
:101530003840FFF721BDB4F807301BB9BDE838408B
:10154000FFF7ACBF94F90120002AF7DB0848018AB5
:101550009942EAD3C2680068E2602582C179994263
:1015600001D2052300E00623237038BD6807002060
:10157000B806002010B51E4C2378062B12D0072B7E
:101580001FD0052B2CD1FFF735FF00282EDBB4F838
:101590000720208A174B111A1A68D079814225DC5E
:1015A00006210CE0FFF726FF00281FDBFFF748FFAE
:1015B000B8B1002001460246FFF7CAFC04212170A1
:1015C00010BD002001460246FFF7CCFC63690021F4
:1015D00021700BB1601C984705480022426110BD84
:1015E00000200121BDE81040FFF7C6BC10BD00BFC0
:1015F00068070020B8060020154B1A78032A10B59A
:101600001C4607D0042A07D0022A1BD1BDE810408F
:10161000FFF7CCBE072113E05B690BB1601C984754
:1016200061780B4851B98278052A07D1094BB0F887
:101630000300D3F8AC10C0B24A689047044B0021B5
:10164000197010BD00200121BDE81040FFF794BCC7
:1016500068070020B80600201C4B02221A6053F8CD
:10166000080C40F0800143F8081C5A6A42F410202C
:101670005862174B19680029FBDA1A6842F001001A
:101680001860196811F00102FBD1124B186840F084
:10169000804141F4705018600F4B196841F003000D
:1016A0001860C3F800260D4A0D480E4980231360C8
:1016B0000B8003680C4943F001020C4B026001618E
:1016C00001220F20186043F80C2C704714000050C2
:1016D000100000500C000050000800502400005082
:1016E0000800005098070020182804801C080050AB
:1016F000034B1A6822F4FE6141EA0010186070473B
:1017000000080050F0B510F07F0433D13F2A414B60
:1017100001D91C6009E01F2A01D9012004E00F2A29
:1017200001D9022000E0032018603B4902F07F034A
:101730000B6051F8100C43F0005340F0084041F8A2
:10174000100C43F400203549354B086018603548CB
:101750000168920841F008430360100440F08001E2
:10176000314B324819600188314B521891B20180D7
:101770001980F0BD00F08000C5B24DB32B4805883C
:10178000960845EA064C04F1A057761906804037C2
:10179000600100F1A046BF0002F07F0504F1207057
:1017A000C7F800C04830C6F81059A605400146EAFF
:1017B000814141F01841056841F400410A432A4340
:1017C00002602BB31B490C2000FB0414A364F0BD82
:1017D00002F07F00114D40F4002045F8240065011F
:1017E00005F1A04542EA8142C5F8100B04F12070D2
:1017F0005830400142F01441056841F400422A4348
:1018000002602BB10B490C2000FB0414E364F0BD13
:10181000F0BD00BF000900501009005080070020F3
:10182000100B0050000B00502800005098070020BB
:1018300092070020B8060020024B03481A88028055
:10184000704700BF920700209807002003060DD4C0
:10185000074B195400F1207058304201136811B140
:1018600043F0006101E043F080611160704700BF08
:101870009407002000F07F00430103F1A04310B55E
:10188000D3F8104914F4002F1DD142F40024C3F8FA
:10189000104900F1207348335B0101301C680003DC
:1018A00044F004441C6000F1A04302F1A044241859
:1018B000E41A002C08DD0C1AE41804F13044246802
:1018C00043F8044BF1E70022104610BD3B4B70B5C6
:1018D0001D68AA0409D53A4A4FF4005180201960C6
:1018E0001080BDE87040FFF71DBBE80631D53548D4
:1018F000016801F4F012B2F5802F02D0B2F5402F4A
:101900005AD13148C1F30A1301F00F04B2F5402F48
:1019100014BF0126022603804FF47A7100BF0139FB
:10192000FCD1032202FB04661236284B53F8261022
:1019300009B120468847244A01342003168800F163
:10194000A0440023B34202DA20680433FAE70026F9
:1019500016800024620102F1A04303F608163168E4
:10196000C90709D519480C2202FB0403996C09B177
:10197000E0B28847012030600134042CEAD12A0506
:1019800007D5124AD36903B198470C484FF4006158
:101990000160002D07DA0D4A136A03B19847074822
:1019A0004FF0004101602B0706D5084A536A03B186
:1019B000984702480821016070BD00BF1400005024
:1019C000980700202000005090070020B806002053
:1019D0001C4B37B504461888824234BF154605466D
:1019E000421B1A80631C180300F1A0432A46032AF5
:1019F00005DD53F8040B043A41F8040BF7E73AB15C
:101A0000186802AB43F8040D0846194600F062F866
:101A10000D4A610152F824300C4A01F1A04004F152
:101A200020715831C0F8103B4801115D036800294E
:101A30000CBF4FF004424FF008421A4302602846A0
:101A40003EBD00BF900700208007002094070020C3
:101A500040B9114B1A6811B142F4001201E022F4AE
:101A600000121A60030605D500F07F0303F1207011
:101A7000483002E000F1207058304201106811B186
:101A800040F4001005E020F400111160136843F0E9
:101A900080501060704700BF00090050030605D554
:101AA00000F07F0101F12070483002E000F1207069
:101AB000583042011368C3F340507047044B1A6812
:101AC00010B142F0020001E022F0020018607047FD
:101AD000040800500F2A2DE9F00340F2958041EAF6
:101AE00000039B0740F092800C6804604D684560DD
:101AF0008E68A2F110038660CC681D460F2DC4606D
:101B0000C3F3001601F1100400F1100322D966B1ED
:101B100026681E6066685E60A6689E60E668103D86
:101B2000DE60103410330F2D14D926681E606668ED
:101B30005E60A6689E60E668DE6026691E61666972
:101B40005E61A6699E61E669203DDE612034203336
:101B50000F2DEAD8A2F1100323F00F0402F00F03B7
:101B60001034032B00EB0408214451D9A3F10409DC
:101B70000B464FEA990901EB890C53F8046BC1EB52
:101B80000C0544460CF1040C634544F8046BC5F3A2
:101B9000800512D02DB153F8045B634544F8045B13
:101BA0000BD01E46254656F8047B45F8047B5F683B
:101BB000331D67602C1D6345F3D109F101039C00BF
:101BC000091902F003024444DAB123460D7803F800
:101BD000015BA218E4431419934204F0010410D0ED
:101BE0002CB111F8014F03F8014B934209D04D7805
:101BF0001C4604F8015B8D785D70631C02319342D2
:101C0000F5D1BDE8F00370470446DDE70446DCE7A4
:101C100044461A46D8E700BF20F0030110F0030045
:101C2000C0F1000051F8043B00F1040C4FEACC0C69
:101C30006FF000021CBF22FA0CF213434FF0010CAC
:101C40004CEA0C2C4CEA0C4CA3EB0C0222EA0302EB
:101C500012EACC1204BF51F8043B0430F4D013F064
:101C6000FF0F1FBF013013F47F4F013013F47F0FBC
:101C700018BF0130704700BF04000000121012139B
:101C800012110000080000000040000010000000D9
:101C9000004000001800000000400000200000008C
:101CA00000000100280000000000020030000000D9
:101CB00000000200380000000000020040000000A8
:101CC0000000020048000000000002005000000078
:101CD0000000020058000000000002008000000028
:101CE000004000008800000000400000900000005C
:101CF000004000009800000000400000A00000002C
:101D000000000100A800000000000200B000000078
:101D100000000200B800000000000200C000000047
:101D200000000200C800000000000200D000000017
:101D300000000200D800000000000200080050016E
:101D400002070000050600000005040080DE800296
:101D500000BD01051201000202000040AC27511134
:101D60000101010203010902000002010080FA746E
:101D70001D00080001000000000000008C1D00088C
:101D80000100000000000000A11D0008090400007F
:101D90000102020100B61D0008BD1D00081300006D
:101DA0000009040100020A000000D01D0008000024
:101DB000000000000000070583031000FF05240059
:101DC000100105240100010424020005240600017D
:101DD00007050102400001070582024000010000E2
:101DE0004C61736572204E617669676174696F6ECC
:101DF00000565220424C20425241494E2076352E08
:101E00003100300023100008000000000000000036
:101E100000000000000000000000000000000000C2
:101E2000000000000000000000000000FF0F00089C
:101E3000F10F00080B100008000000000000000077
:101E40000000000000000000CD120008851000080E
:101E500000000000D50F0008A10F00085916000867
:101E6000F11600080517000839180008511A000873
:101E70004D1800089D1A000875180008D1190008AF
:081E8000CD180008BD1A00088E
:101E88007F0400000000000000000000A80000001F
:101E9800031E0008E01D0008F11D0008021E0008CE
:081EA8000024F4000024F40002
:0400000508000000EF
:00000001FF
